:020000040000FA
:06000000F1EF00F0120018
:020006000000F8
:0800080007EF00F012009EAAB0
:1000100002D09AEC00F01200956A800E946E936AFA
:10002000926A0F0EC1129E6A200E9D6E0F0EE66E32
:100030007DEC00F0E552F28EF28C7D0EE66ECAEC9D
:1000400000F0E552010EE66E8DEC00F0E552550E23
:0C005000E66E8DEC00F0E552FAD71200CD
:04005C00060EF66E28
:10006000000EF76E000EF86E00010900F550856F66
:100070000900F550866F03E1856701D03DD0090086
:10008000F550806F0900F550816F0900F550826FBF
:1000900009000900F550E96E0900F550EA6E090003
:1000A00009000900F550836F0900F550846F0900BD
:1000B0000900F6CF87F0F7CF88F0F8CF89F080C03D
:1000C000F6FF81C0F7FF82C0F8FF0001835302E111
:1000D000845307E00900F550EE6E8307F8E28407C9
:1000E000F9D787C0F6FF88C0F7FF89C0F8FF000185
:0A00F0008507000E865BBFD71200E3
:0600FA00D9CFE6FFE1CFC3
:10010000D9FFFE0EDB50AF6E240EAC6E900EAB6EC0
:1001100011D8E552E7CFD9FF1200D9CFE6FFE1CFE2
:10012000D9FFACA2FED7FE0EDB50AD6EE552E7CF95
:10013000D9FF1200D9CFE6FFE1CFD9FFE652ABA23B
:1001400003D0AB88AE50DF6E9E9AAE5000D0E55221
:10015000E552E7CFD9FF1200D9CFE6FFE1CFD9FFB3
:10016000FD0EDBCFE9FFFE0EDBCFEAFFEF500EE026
:10017000FD0EDBCFE9FFDB2AFE0EDBCFEAFF01E35A
:10018000DB2AEF50E66EC9DFE552EAD7E552E7CF4A
:04019000D9FF120081
:0C019400FF0EE350036EEF0E01D0F30EDF
:1001A000E76EE72ED1EF00F00C0E026EE76AE72E45
:1001B000D7EF00F0022ED6EF00F0032ECFEF00F0C5
:0201C00012002B
:0E01C200000EF36E00EE00F0060E01D81200E3
:1001D000EA6002D0EE6AFCD7F350E9601200EE6AE2
:0201E000FCD74A
:0E01E20015EE00F025EE00F0F86A019C2EEC00
:0E01F00000F0FFEC00F00CEC00F0FBD712006A
:0201FE001200ED
:020000040030CA
:0100010002FC
:00000001FF
